{
  "abi": [
    {
      "inputs": [
        {
          "internalType": "uint256",
          "name": "_maxFee",
          "type": "uint256"
        }
      ],
      "stateMutability": "nonpayable",
      "type": "constructor"
    },
    {
      "anonymous": false,
      "inputs": [
        {
          "indexed": true,
          "internalType": "uint256",
          "name": "projectId",
          "type": "uint256"
        },
        {
          "indexed": true,
          "internalType": "address",
          "name": "contributor",
          "type": "address"
        },
        {
          "indexed": false,
          "internalType": "uint256",
          "name": "amount",
          "type": "uint256"
        }
      ],
      "name": "Contribution",
      "type": "event"
    },
    {
      "anonymous": false,
      "inputs": [
        {
          "indexed": false,
          "internalType": "uint256",
          "name": "fee",
          "type": "uint256"
        }
      ],
      "name": "FeeSet",
      "type": "event"
    },
    {
      "anonymous": false,
      "inputs": [
        {
          "indexed": false,
          "internalType": "uint256",
          "name": "amount",
          "type": "uint256"
        }
      ],
      "name": "OwnerWithdraw",
      "type": "event"
    },
    {
      "anonymous": false,
      "inputs": [
        {
          "indexed": true,
          "internalType": "address",
          "name": "previousOwner",
          "type": "address"
        },
        {
          "indexed": true,
          "internalType": "address",
          "name": "newOwner",
          "type": "address"
        }
      ],
      "name": "OwnershipTransferred",
      "type": "event"
    },
    {
      "anonymous": false,
      "inputs": [
        {
          "indexed": true,
          "internalType": "uint256",
          "name": "projectId",
          "type": "uint256"
        }
      ],
      "name": "ProjectCreated",
      "type": "event"
    },
    {
      "anonymous": false,
      "inputs": [
        {
          "indexed": true,
          "internalType": "uint256",
          "name": "projectId",
          "type": "uint256"
        }
      ],
      "name": "ProjectFinished",
      "type": "event"
    },
    {
      "anonymous": false,
      "inputs": [
        {
          "indexed": true,
          "internalType": "address",
          "name": "sender",
          "type": "address"
        },
        {
          "indexed": false,
          "internalType": "uint256",
          "name": "amount",
          "type": "uint256"
        }
      ],
      "name": "Received",
      "type": "event"
    },
    {
      "anonymous": false,
      "inputs": [
        {
          "indexed": true,
          "internalType": "uint256",
          "name": "projectId",
          "type": "uint256"
        },
        {
          "indexed": true,
          "internalType": "address",
          "name": "contributor",
          "type": "address"
        },
        {
          "indexed": false,
          "internalType": "uint256",
          "name": "amount",
          "type": "uint256"
        }
      ],
      "name": "Refund",
      "type": "event"
    },
    {
      "anonymous": false,
      "inputs": [
        {
          "indexed": true,
          "internalType": "uint256",
          "name": "projectId",
          "type": "uint256"
        },
        {
          "indexed": true,
          "internalType": "address",
          "name": "owner",
          "type": "address"
        },
        {
          "indexed": false,
          "internalType": "uint256",
          "name": "amount",
          "type": "uint256"
        }
      ],
      "name": "Withdraw",
      "type": "event"
    },
    {
      "stateMutability": "payable",
      "type": "fallback"
    },
    {
      "inputs": [],
      "name": "DENOMINATOR",
      "outputs": [
        {
          "internalType": "uint256",
          "name": "",
          "type": "uint256"
        }
      ],
      "stateMutability": "view",
      "type": "function"
    },
    {
      "inputs": [],
      "name": "MAX_FEE",
      "outputs": [
        {
          "internalType": "uint256",
          "name": "",
          "type": "uint256"
        }
      ],
      "stateMutability": "view",
      "type": "function"
    },
    {
      "inputs": [
        {
          "internalType": "uint256",
          "name": "_projectId",
          "type": "uint256"
        }
      ],
      "name": "contribute",
      "outputs": [],
      "stateMutability": "payable",
      "type": "function"
    },
    {
      "inputs": [
        {
          "internalType": "address",
          "name": "",
          "type": "address"
        },
        {
          "internalType": "uint256",
          "name": "",
          "type": "uint256"
        }
      ],
      "name": "contributionsByProject",
      "outputs": [
        {
          "internalType": "uint256",
          "name": "",
          "type": "uint256"
        }
      ],
      "stateMutability": "view",
      "type": "function"
    },
    {
      "inputs": [
        {
          "internalType": "string",
          "name": "_name",
          "type": "string"
        },
        {
          "internalType": "string",
          "name": "_description",
          "type": "string"
        },
        {
          "internalType": "uint256",
          "name": "_goal",
          "type": "uint256"
        },
        {
          "internalType": "uint256",
          "name": "_deadline",
          "type": "uint256"
        }
      ],
      "name": "createProject",
      "outputs": [
        {
          "internalType": "uint256",
          "name": "",
          "type": "uint256"
        }
      ],
      "stateMutability": "nonpayable",
      "type": "function"
    },
    {
      "inputs": [],
      "name": "fee",
      "outputs": [
        {
          "internalType": "uint256",
          "name": "",
          "type": "uint256"
        }
      ],
      "stateMutability": "view",
      "type": "function"
    },
    {
      "inputs": [],
      "name": "feeBalance",
      "outputs": [
        {
          "internalType": "uint256",
          "name": "",
          "type": "uint256"
        }
      ],
      "stateMutability": "view",
      "type": "function"
    },
    {
      "inputs": [
        {
          "internalType": "address",
          "name": "_contributor",
          "type": "address"
        },
        {
          "internalType": "uint256",
          "name": "_projectId",
          "type": "uint256"
        }
      ],
      "name": "getContribution",
      "outputs": [
        {
          "internalType": "uint256",
          "name": "",
          "type": "uint256"
        }
      ],
      "stateMutability": "view",
      "type": "function"
    },
    {
      "inputs": [
        {
          "internalType": "uint256",
          "name": "_projectId",
          "type": "uint256"
        }
      ],
      "name": "getProject",
      "outputs": [
        {
          "internalType": "string",
          "name": "name",
          "type": "string"
        },
        {
          "internalType": "string",
          "name": "description",
          "type": "string"
        },
        {
          "internalType": "uint256",
          "name": "goal",
          "type": "uint256"
        },
        {
          "internalType": "uint256",
          "name": "deadline",
          "type": "uint256"
        },
        {
          "internalType": "uint256",
          "name": "amountRaised",
          "type": "uint256"
        },
        {
          "internalType": "address",
          "name": "owner",
          "type": "address"
        },
        {
          "internalType": "bool",
          "name": "isClosed",
          "type": "bool"
        },
        {
          "internalType": "bool",
          "name": "goalReached",
          "type": "bool"
        }
      ],
      "stateMutability": "view",
      "type": "function"
    },
    {
      "inputs": [
        {
          "internalType": "address",
          "name": "_owner",
          "type": "address"
        }
      ],
      "name": "getProjectsByOwner",
      "outputs": [
        {
          "internalType": "uint256[]",
          "name": "",
          "type": "uint256[]"
        }
      ],
      "stateMutability": "view",
      "type": "function"
    },
    {
      "inputs": [],
      "name": "getProjectsCount",
      "outputs": [
        {
          "internalType": "uint256",
          "name": "",
          "type": "uint256"
        }
      ],
      "stateMutability": "view",
      "type": "function"
    },
    {
      "inputs": [],
      "name": "owner",
      "outputs": [
        {
          "internalType": "address",
          "name": "",
          "type": "address"
        }
      ],
      "stateMutability": "view",
      "type": "function"
    },
    {
      "inputs": [],
      "name": "ownerWithdraw",
      "outputs": [],
      "stateMutability": "nonpayable",
      "type": "function"
    },
    {
      "inputs": [
        {
          "internalType": "uint256",
          "name": "",
          "type": "uint256"
        }
      ],
      "name": "projects",
      "outputs": [
        {
          "internalType": "string",
          "name": "name",
          "type": "string"
        },
        {
          "internalType": "string",
          "name": "description",
          "type": "string"
        },
        {
          "internalType": "uint256",
          "name": "goal",
          "type": "uint256"
        },
        {
          "internalType": "uint256",
          "name": "deadline",
          "type": "uint256"
        },
        {
          "internalType": "uint256",
          "name": "amountRaised",
          "type": "uint256"
        },
        {
          "internalType": "address payable",
          "name": "owner",
          "type": "address"
        },
        {
          "internalType": "bool",
          "name": "isClosed",
          "type": "bool"
        },
        {
          "internalType": "bool",
          "name": "goalReached",
          "type": "bool"
        }
      ],
      "stateMutability": "view",
      "type": "function"
    },
    {
      "inputs": [
        {
          "internalType": "address",
          "name": "",
          "type": "address"
        },
        {
          "internalType": "uint256",
          "name": "",
          "type": "uint256"
        }
      ],
      "name": "projectsByOwner",
      "outputs": [
        {
          "internalType": "uint256",
          "name": "",
          "type": "uint256"
        }
      ],
      "stateMutability": "view",
      "type": "function"
    },
    {
      "inputs": [
        {
          "internalType": "uint256",
          "name": "_projectId",
          "type": "uint256"
        }
      ],
      "name": "refund",
      "outputs": [],
      "stateMutability": "nonpayable",
      "type": "function"
    },
    {
      "inputs": [],
      "name": "renounceOwnership",
      "outputs": [],
      "stateMutability": "nonpayable",
      "type": "function"
    },
    {
      "inputs": [
        {
          "internalType": "uint256",
          "name": "_fee",
          "type": "uint256"
        }
      ],
      "name": "setFee",
      "outputs": [],
      "stateMutability": "nonpayable",
      "type": "function"
    },
    {
      "inputs": [
        {
          "internalType": "uint256",
          "name": "_projectId",
          "type": "uint256"
        }
      ],
      "name": "setFinished",
      "outputs": [],
      "stateMutability": "nonpayable",
      "type": "function"
    },
    {
      "inputs": [
        {
          "internalType": "address",
          "name": "newOwner",
          "type": "address"
        }
      ],
      "name": "transferOwnership",
      "outputs": [],
      "stateMutability": "nonpayable",
      "type": "function"
    },
    {
      "inputs": [
        {
          "internalType": "uint256",
          "name": "_projectId",
          "type": "uint256"
        }
      ],
      "name": "withdraw",
      "outputs": [],
      "stateMutability": "nonpayable",
      "type": "function"
    },
    {
      "stateMutability": "payable",
      "type": "receive"
    }
  ],
  "bytecode": {
    "object": "0x60a0346100ab57601f61197838819003918201601f19168301916001600160401b038311848410176100b0578084926020946040528339810103126100ab575160008054336001600160a01b0319821681178355604051939290916001600160a01b0316907f8be0079c531659141344cd1fd0a4f28419497f9722a3daafe3b4186f6b6457e09080a3600180556080526118b190816100c782396080518181816106190152610ee70152f35b600080fd5b634e487b7160e01b600052604160045260246000fdfe60806040526004361015610089575b361561004c5760405162461bcd60e51b815260206004820152601060248201526f24b73b30b634b210333ab731ba34b7b760811b6044820152606490fd5b61005834600354611766565b6003556040513481527f88a5966d370b9919b20f3e2c13ff65706f196a4e32cc2c12bf57088f8852587460203392a2005b60003560e01c8063107046bd146113e0578063278ecde1146112765780632e1a7d4d146110bc5780634311de8f1461100857806360b71d4e14610fea578063653c95b814610f9457806369fe0e2d14610ec9578063715018a614610e705780638da5cb5b14610e47578063918f867414610e2a5780639244986614610cb757806394ba9709146107385780639d9cc2fe14610684578063a25056171461063c578063bc063e1a14610601578063c1cbbca7146103db578063ddca3f43146103bd578063e4a8f18b1461039f578063f0f3f2c81461029b578063f2fde38b146101d25763f48208680361000e57346101cd5760403660031901126101cd5761018e61162b565b6001600160a01b03166000908152600560205260409020805460243591908210156101cd576020916101bf916116a4565b90546040519160031b1c8152f35b600080fd5b346101cd5760203660031901126101cd576101eb61162b565b6101f36116bc565b6001600160a01b0390811690811561024757600054826bffffffffffffffffffffffff60a01b821617600055167f8be0079c531659141344cd1fd0a4f28419497f9722a3daafe3b4186f6b6457e0600080a3005b60405162461bcd60e51b815260206004820152602660248201527f4f776e61626c653a206e6577206f776e657220697320746865207a65726f206160448201526564647265737360d01b6064820152608490fd5b346101cd5760203660031901126101cd576103666004356102bf6004548210611714565b6102c881611498565b50906102d381611498565b509160ff60026102e284611498565b5001549260036102f182611498565b50015460046102ff83611498565b50015461030b83611498565b50600560018060a01b039101541691610374610352600161034b88600561033e816103358c611498565b5001549a611498565b50015460a81c1699611545565b9a01611545565b6040519a8b9a610100808d528c01906115eb565b908a820360208c01526115eb565b9660408901526060880152608087015260a086015260a01c16151560c0840152151560e08301520390f35b346101cd5760003660031901126101cd576020600454604051908152f35b346101cd5760003660031901126101cd576020600254604051908152f35b6020806003193601126101cd5760043534156105b0576103fe6004548210611714565b600361040982611498565b500154421161056b5760ff600561041f83611498565b50015460a01c1661053257600254803402903482040361051c576104ed6103e87fee5e682f79085c85b959874a59b4897eae17b6448ab068a467169ca1b2e1a888920461046e81600354611766565b60035561047b8134611759565b610493600461048987611498565b5001918254611766565b905560046104a085611498565b50015460026104ae86611498565b50015411156104f9575b6104c28134611759565b336000526006865260406000208560005286526104e56040600020918254611766565b905534611759565b926040519384523393a3005b600561050485611498565b5001805460ff60a81b1916600160a81b1790556104b8565b634e487b7160e01b600052601160045260246000fd5b60405162461bcd60e51b8152600481018390526011602482015270141c9bda9958dd081a5cc818db1bdcd959607a1b6044820152606490fd5b60405162461bcd60e51b815260048101839052601a60248201527f50726f6a65637420646561646c696e65206973207061737365640000000000006044820152606490fd5b60405162461bcd60e51b815260048101839052602360248201527f436f6e747269627574696f6e206d75737420626520677265617465722074686160448201526206e20360ec1b6064820152608490fd5b346101cd5760003660031901126101cd5760206040517f00000000000000000000000000000000000000000000000000000000000000008152f35b346101cd5760403660031901126101cd576001600160a01b0361065d61162b565b16600052600660205260406000206024356000526020526020604060002054604051908152f35b346101cd576020806003193601126101cd576001600160a01b036106a661162b565b1660005260058152604060002060405190818382549182815201908192600052846000209060005b868282106107245786866106e482880383611523565b604051928392818401908285525180915260408401929160005b82811061070d57505050500390f35b8351855286955093810193928101926001016106fe565b8354855290930192600192830192016106ce565b346101cd5760803660031901126101cd5760043567ffffffffffffffff81116101cd5761076990369060040161165d565b60243567ffffffffffffffff81116101cd5761078990369060040161165d565b6044356064358115610c7257603c8110610c1f57336000526005602052604060002080548015918215610be6575b505015610b8d576107c89042611766565b9160405193610100850185811067ffffffffffffffff8211176109e5576040528452602084015260408301526060820152600060808201523360a0820152600060c0820152600060e0820152600454600160401b8110156109e5578060016108339201600455611498565b919091610b7757805191825167ffffffffffffffff81116109e55761085882546114e9565b601f8111610b33575b506020601f8211600114610acb5781929394600092610ac0575b50508160011b916000199060031b1c19161781555b602082015180519067ffffffffffffffff82116109e5576108b460018401546114e9565b601f8111610a79575b50602090601f8311600114610a06576005939291600091836109fb575b50508160011b916000199060031b1c19161760018201555b604083015160028201556060830151600382015560808301516004820155019060018060a01b0360a0820151169082549160ff60a01b60c0830151151560a01b169160e060ff60a81b910151151560a81b169269ffffffffffffffffffff60b01b16171717905533600052600560205260406000206004546000199182820191821161051c578054600160401b8110156109e557610995916001820181556116a4565b83829392549160031b92831b921b191617905560045490810190811161051c57604051602091807f1ac2092e16e28eef29d1832f3dc69da1b21284a1f3159d3b26cb238b22fe4f8a600080a28152f35b634e487b7160e01b600052604160045260246000fd5b0151905085806108da565b906001840160005260206000209160005b601f1985168110610a61575091839160019360059695601f19811610610a48575b505050811b0160018201556108f2565b015160001960f88460031b161c19169055858080610a38565b91926020600181928685015181550194019201610a17565b600184016000526020600020601f840160051c810160208510610ab9575b601f830160051c82018110610aad5750506108bd565b60008155600101610a97565b5080610a97565b01519050848061087b565b8260005260206000209060005b601f1984168110610b1b5750600193949583601f19811610610b02575b505050811b018155610890565b015160001960f88460031b161c19169055848080610af5565b9091602060018192858a015181550193019101610ad8565b826000526020600020601f830160051c810160208410610b70575b601f830160051c82018110610b64575050610861565b60008155600101610b4e565b5080610b4e565b634e487b7160e01b600052600060045260246000fd5b60405162461bcd60e51b815260206004820152602b60248201527f55736572732063616e206f6e6c7920637265617465206f6e652070726f6a656360448201526a7420617420612074696d6560a81b6064820152608490fd5b6000198201925090821161051c57610c11610c0560ff936005936116a4565b90549060031b1c611498565b50015460a01c1685806107b7565b60405162461bcd60e51b815260206004820152602560248201527f446561646c696e65206d757374206265206174206c6561737420696e2031206d604482015264696e75746560d81b6064820152608490fd5b60405162461bcd60e51b815260206004820152601b60248201527f476f616c206d7573742062652067726561746572207468616e203000000000006044820152606490fd5b346101cd5760203660031901126101cd57600435610cd86004548210611714565b610ce181611498565b50600501546001600160a01b031633148015610e14575b15610d9f5760ff6005610d0a83611498565b50015460a01c16610d5a576005610d2082611498565b5001805460ff60a01b1916600160a01b1790557f5032973ebecb355d37badc06a2e7e34401c2b21eaade274aa03b3730fa18ff8a600080a2005b60405162461bcd60e51b815260206004820152601960248201527f50726f6a65637420697320616c726561647920636c6f736564000000000000006044820152606490fd5b60405162461bcd60e51b815260206004820152604160248201527f4f6e6c79206f776e65722063616e207365742070726f6a65637420617320666960448201527f6e6973686564206f7220646561646c696e65206d7573742062652070617373656064820152601960fa1b608482015260a490fd5b506003610e2082611498565b5001544211610cf8565b346101cd5760003660031901126101cd5760206040516103e88152f35b346101cd5760003660031901126101cd576000546040516001600160a01b039091168152602090f35b346101cd5760003660031901126101cd57610e896116bc565b600080546001600160a01b0319811682556001600160a01b03167f8be0079c531659141344cd1fd0a4f28419497f9722a3daafe3b4186f6b6457e08280a3005b346101cd5760203660031901126101cd57600435610ee56116bc565b7f00000000000000000000000000000000000000000000000000000000000000008111610f3d576020817f20461e09b8e557b77e107939f9ce6544698123aad0fc964ac5cc59b7df2e608f92600255604051908152a1005b60405162461bcd60e51b815260206004820152602960248201527f466565206d757374206265206c657373207468616e206f7220657175616c20746044820152686f206d61782066656560b81b6064820152608490fd5b346101cd5760403660031901126101cd57610fad61162b565b60243590610fbe6004548310611714565b60018060a01b031660005260066020526040600020906000526020526020604060002054604051908152f35b346101cd5760003660031901126101cd576020600354604051908152f35b346101cd5760003660031901126101cd576110216116bc565b611029611825565b60035480156110825760207fa20809e697380eaea0fd13bf4d14b00e2ef29559ef361501189d3be2e9b0ec85916000600355611075600080808085335af161106f6117b7565b506117e7565b604051908152a160018055005b60405162461bcd60e51b81526020600482015260126024820152714e6f2066656520746f20776974686472617760701b6044820152606490fd5b346101cd5760203660031901126101cd576004356110d8611825565b6110e56004548210611714565b61110160ff60056110f584611498565b50015460a01c16611773565b61110a81611498565b50600501546001600160a01b0316330361123157600461112982611498565b500154156111f45760ff600561113e83611498565b50015460a81c16156111af57600461115582611498565b500154906000600461116683611498565b50015561117d600080808086335af161106f6117b7565b6040519182527f9da6493a92039daf47d1f2d7a782299c5994c6323eb1e972f69c432089ec52bf60203393a360018055005b60405162461bcd60e51b815260206004820152601b60248201527f50726f6a65637420676f616c206973206e6f74207265616368656400000000006044820152606490fd5b60405162461bcd60e51b81526020600482015260156024820152744e6f20616d6f756e7420746f20776974686472617760581b6044820152606490fd5b60405162461bcd60e51b815260206004820152601760248201527f4f6e6c79206f776e65722063616e2077697468647261770000000000000000006044820152606490fd5b346101cd576020806003193601126101cd57600435611293611825565b6112a06004548210611714565b6112b060ff60056110f584611498565b60ff60056112bd83611498565b50015460a81c1661139b57336000526006825260406000208160005282526040600020541561135e57336000526006825260406000208160005282527f21e12a7cad0da5928167e1084ea4d5fdf8d9af66657a2543a9ac76a0ca08147760406000205492336000526006815260406000208360005281526000604081205561134f600080808088335af161106f6117b7565b6040519384523393a360018055005b60405162461bcd60e51b8152600481018390526015602482015274139bc818dbdb9d1c9a589d5d1a5bdb88199bdd5b99605a1b6044820152606490fd5b60405162461bcd60e51b815260048101839052601760248201527f50726f6a65637420676f616c20697320726561636865640000000000000000006044820152606490fd5b346101cd5760203660031901126101cd576004356004548110156101cd5761140a61145091611498565b5061141481611545565b9060ff61142360018301611545565b600283015492600381015461145e6005600484015493015493604051988998610100808b528a01906115eb565b9088820360208a01526115eb565b9460408701526060860152608085015260018060a01b03811660a0850152818160a01c16151560c085015260a81c16151560e08301520390f35b6004548110156114d3576006906004600052027f8a35acfbc15ff81a39ae7d344fd709f28e8600b4aa8c65c6b64bfe7fe36bd19b0190600090565b634e487b7160e01b600052603260045260246000fd5b90600182811c92168015611519575b602083101461150357565b634e487b7160e01b600052602260045260246000fd5b91607f16916114f8565b90601f8019910116810190811067ffffffffffffffff8211176109e557604052565b9060405191826000825492611559846114e9565b9081845260019485811690816000146115c85750600114611585575b505061158392500383611523565b565b9093915060005260209081600020936000915b8183106115b057505061158393508201013880611575565b85548884018501529485019487945091830191611598565b91505061158394506020925060ff191682840152151560051b8201013880611575565b919082519283825260005b848110611617575050826000602080949584010152601f8019910116010190565b6020818301810151848301820152016115f6565b600435906001600160a01b03821682036101cd57565b67ffffffffffffffff81116109e557601f01601f191660200190565b81601f820112156101cd5780359061167482611641565b926116826040519485611523565b828452602083830101116101cd57816000926020809301838601378301015290565b80548210156114d35760005260206000200190600090565b6000546001600160a01b031633036116d057565b606460405162461bcd60e51b815260206004820152602060248201527f4f776e61626c653a2063616c6c6572206973206e6f7420746865206f776e65726044820152fd5b1561171b57565b60405162461bcd60e51b8152602060048201526016602482015275141c9bda9958dd08191bd95cc81b9bdd08195e1a5cdd60521b6044820152606490fd5b9190820391821161051c57565b9190820180921161051c57565b1561177a57565b60405162461bcd60e51b8152602060048201526015602482015274141c9bda9958dd081a5cc81b9bdd0818db1bdcd959605a1b6044820152606490fd5b3d156117e2573d906117c882611641565b916117d66040519384611523565b82523d6000602084013e565b606090565b156117ee57565b60405162461bcd60e51b815260206004820152600f60248201526e151c985b9cd9995c8819985a5b1959608a1b6044820152606490fd5b600260015414611836576002600155565b60405162461bcd60e51b815260206004820152601f60248201527f5265656e7472616e637947756172643a207265656e7472616e742063616c6c006044820152606490fdfea26469706673582212204f70b9880ffaa6f9f852e4e67a2b61b366b4986b4ab5c37124efba26d1f3fe3a64736f6c63430008140033",
    "linkReferences": {}
  },
  "methodIdentifiers": {
    "DENOMINATOR()": "918f8674",
    "MAX_FEE()": "bc063e1a",
    "contribute(uint256)": "c1cbbca7",
    "contributionsByProject(address,uint256)": "a2505617",
    "createProject(string,string,uint256,uint256)": "94ba9709",
    "fee()": "ddca3f43",
    "feeBalance()": "60b71d4e",
    "getContribution(address,uint256)": "653c95b8",
    "getProject(uint256)": "f0f3f2c8",
    "getProjectsByOwner(address)": "9d9cc2fe",
    "getProjectsCount()": "e4a8f18b",
    "owner()": "8da5cb5b",
    "ownerWithdraw()": "4311de8f",
    "projects(uint256)": "107046bd",
    "projectsByOwner(address,uint256)": "f4820868",
    "refund(uint256)": "278ecde1",
    "renounceOwnership()": "715018a6",
    "setFee(uint256)": "69fe0e2d",
    "setFinished(uint256)": "92449866",
    "transferOwnership(address)": "f2fde38b",
    "withdraw(uint256)": "2e1a7d4d"
  },
  "id": 22
}